{
  "contractName": "HerbalPlant",
  "abi": [
    {
      "anonymous": false,
      "inputs": [
        {
          "indexed": false,
          "internalType": "uint256",
          "name": "plantId",
          "type": "uint256"
        },
        {
          "indexed": false,
          "internalType": "string",
          "name": "name",
          "type": "string"
        },
        {
          "indexed": false,
          "internalType": "string",
          "name": "namaLatin",
          "type": "string"
        },
        {
          "indexed": false,
          "internalType": "string",
          "name": "komposisi",
          "type": "string"
        },
        {
          "indexed": false,
          "internalType": "string",
          "name": "kegunaan",
          "type": "string"
        },
        {
          "indexed": false,
          "internalType": "string",
          "name": "caraPengolahan",
          "type": "string"
        },
        {
          "indexed": false,
          "internalType": "string",
          "name": "ipfsHash",
          "type": "string"
        },
        {
          "indexed": false,
          "internalType": "address",
          "name": "owner",
          "type": "address"
        }
      ],
      "name": "PlantAdded",
      "type": "event"
    },
    {
      "anonymous": false,
      "inputs": [
        {
          "indexed": false,
          "internalType": "uint256",
          "name": "plantId",
          "type": "uint256"
        },
        {
          "indexed": false,
          "internalType": "address",
          "name": "user",
          "type": "address"
        }
      ],
      "name": "PlantLiked",
      "type": "event"
    },
    {
      "anonymous": false,
      "inputs": [
        {
          "indexed": false,
          "internalType": "uint256",
          "name": "plantId",
          "type": "uint256"
        },
        {
          "indexed": false,
          "internalType": "address",
          "name": "user",
          "type": "address"
        },
        {
          "indexed": false,
          "internalType": "uint256",
          "name": "rating",
          "type": "uint256"
        }
      ],
      "name": "PlantRated",
      "type": "event"
    },
    {
      "anonymous": false,
      "inputs": [
        {
          "indexed": false,
          "internalType": "address",
          "name": "user",
          "type": "address"
        }
      ],
      "name": "UserLoggedIn",
      "type": "event"
    },
    {
      "anonymous": false,
      "inputs": [
        {
          "indexed": false,
          "internalType": "address",
          "name": "user",
          "type": "address"
        }
      ],
      "name": "UserLoggedOut",
      "type": "event"
    },
    {
      "anonymous": false,
      "inputs": [
        {
          "indexed": false,
          "internalType": "address",
          "name": "user",
          "type": "address"
        },
        {
          "indexed": false,
          "internalType": "string",
          "name": "fullName",
          "type": "string"
        }
      ],
      "name": "UserRegistered",
      "type": "event"
    },
    {
      "inputs": [
        {
          "internalType": "string",
          "name": "",
          "type": "string"
        }
      ],
      "name": "emailExists",
      "outputs": [
        {
          "internalType": "bool",
          "name": "",
          "type": "bool"
        }
      ],
      "stateMutability": "view",
      "type": "function",
      "constant": true
    },
    {
      "inputs": [],
      "name": "plantCount",
      "outputs": [
        {
          "internalType": "uint256",
          "name": "",
          "type": "uint256"
        }
      ],
      "stateMutability": "view",
      "type": "function",
      "constant": true
    },
    {
      "inputs": [
        {
          "internalType": "uint256",
          "name": "",
          "type": "uint256"
        }
      ],
      "name": "plants",
      "outputs": [
        {
          "internalType": "string",
          "name": "name",
          "type": "string"
        },
        {
          "internalType": "string",
          "name": "namaLatin",
          "type": "string"
        },
        {
          "internalType": "string",
          "name": "komposisi",
          "type": "string"
        },
        {
          "internalType": "string",
          "name": "kegunaan",
          "type": "string"
        },
        {
          "internalType": "string",
          "name": "caraPengolahan",
          "type": "string"
        },
        {
          "internalType": "string",
          "name": "ipfsHash",
          "type": "string"
        },
        {
          "internalType": "uint256",
          "name": "ratingTotal",
          "type": "uint256"
        },
        {
          "internalType": "uint256",
          "name": "ratingCount",
          "type": "uint256"
        },
        {
          "internalType": "uint256",
          "name": "likeCount",
          "type": "uint256"
        },
        {
          "internalType": "address",
          "name": "owner",
          "type": "address"
        }
      ],
      "stateMutability": "view",
      "type": "function",
      "constant": true
    },
    {
      "inputs": [
        {
          "internalType": "string",
          "name": "fullName",
          "type": "string"
        },
        {
          "internalType": "string",
          "name": "email",
          "type": "string"
        },
        {
          "internalType": "string",
          "name": "password",
          "type": "string"
        }
      ],
      "name": "registerUser",
      "outputs": [],
      "stateMutability": "nonpayable",
      "type": "function"
    },
    {
      "inputs": [
        {
          "internalType": "string",
          "name": "email",
          "type": "string"
        },
        {
          "internalType": "string",
          "name": "password",
          "type": "string"
        }
      ],
      "name": "loginWithEmail",
      "outputs": [],
      "stateMutability": "nonpayable",
      "type": "function"
    },
    {
      "inputs": [
        {
          "internalType": "string",
          "name": "email",
          "type": "string"
        }
      ],
      "name": "logout",
      "outputs": [],
      "stateMutability": "nonpayable",
      "type": "function"
    },
    {
      "inputs": [
        {
          "internalType": "string",
          "name": "email",
          "type": "string"
        },
        {
          "internalType": "string",
          "name": "name",
          "type": "string"
        },
        {
          "internalType": "string",
          "name": "namaLatin",
          "type": "string"
        },
        {
          "internalType": "string",
          "name": "komposisi",
          "type": "string"
        },
        {
          "internalType": "string",
          "name": "kegunaan",
          "type": "string"
        },
        {
          "internalType": "string",
          "name": "caraPengolahan",
          "type": "string"
        },
        {
          "internalType": "string",
          "name": "ipfsHash",
          "type": "string"
        }
      ],
      "name": "addPlant",
      "outputs": [],
      "stateMutability": "nonpayable",
      "type": "function"
    },
    {
      "inputs": [
        {
          "internalType": "string",
          "name": "email",
          "type": "string"
        },
        {
          "internalType": "uint256",
          "name": "plantId",
          "type": "uint256"
        },
        {
          "internalType": "uint256",
          "name": "rating",
          "type": "uint256"
        }
      ],
      "name": "ratePlant",
      "outputs": [],
      "stateMutability": "nonpayable",
      "type": "function"
    },
    {
      "inputs": [
        {
          "internalType": "string",
          "name": "email",
          "type": "string"
        },
        {
          "internalType": "uint256",
          "name": "plantId",
          "type": "uint256"
        }
      ],
      "name": "likePlant",
      "outputs": [],
      "stateMutability": "nonpayable",
      "type": "function"
    },
    {
      "inputs": [
        {
          "internalType": "uint256",
          "name": "plantId",
          "type": "uint256"
        }
      ],
      "name": "getPlantRating",
      "outputs": [
        {
          "internalType": "uint256",
          "name": "averageRating",
          "type": "uint256"
        }
      ],
      "stateMutability": "view",
      "type": "function",
      "constant": true
    },
    {
      "inputs": [
        {
          "internalType": "uint256",
          "name": "plantId",
          "type": "uint256"
        }
      ],
      "name": "getPlantBasicInfo",
      "outputs": [
        {
          "internalType": "string",
          "name": "name",
          "type": "string"
        },
        {
          "internalType": "string",
          "name": "namaLatin",
          "type": "string"
        },
        {
          "internalType": "string",
          "name": "komposisi",
          "type": "string"
        },
        {
          "internalType": "string",
          "name": "kegunaan",
          "type": "string"
        },
        {
          "internalType": "string",
          "name": "caraPengolahan",
          "type": "string"
        },
        {
          "internalType": "string",
          "name": "ipfsHash",
          "type": "string"
        }
      ],
      "stateMutability": "view",
      "type": "function",
      "constant": true
    },
    {
      "inputs": [
        {
          "internalType": "uint256",
          "name": "plantId",
          "type": "uint256"
        }
      ],
      "name": "getPlantMetrics",
      "outputs": [
        {
          "internalType": "uint256",
          "name": "averageRating",
          "type": "uint256"
        },
        {
          "internalType": "uint256",
          "name": "ratingCount",
          "type": "uint256"
        },
        {
          "internalType": "uint256",
          "name": "likeCount",
          "type": "uint256"
        },
        {
          "internalType": "address",
          "name": "owner",
          "type": "address"
        }
      ],
      "stateMutability": "view",
      "type": "function",
      "constant": true
    },
    {
      "inputs": [
        {
          "internalType": "string",
          "name": "email",
          "type": "string"
        }
      ],
      "name": "getUserByEmail",
      "outputs": [
        {
          "components": [
            {
              "internalType": "string",
              "name": "fullName",
              "type": "string"
            },
            {
              "internalType": "string",
              "name": "email",
              "type": "string"
            },
            {
              "internalType": "address",
              "name": "publicKey",
              "type": "address"
            },
            {
              "internalType": "bytes32",
              "name": "passwordHash",
              "type": "bytes32"
            },
            {
              "internalType": "bytes32",
              "name": "salt",
              "type": "bytes32"
            },
            {
              "internalType": "bool",
              "name": "isRegistered",
              "type": "bool"
            },
            {
              "internalType": "bool",
              "name": "isLoggedIn",
              "type": "bool"
            }
          ],
          "internalType": "struct HerbalPlant.User",
          "name": "",
          "type": "tuple"
        }
      ],
      "stateMutability": "view",
      "type": "function",
      "constant": true
    }
  ],
  "bytecode": "0x608060405234801561001057600080fd5b50612e99806100206000396000f3fe608060405234801561001057600080fd5b50600436106100cf5760003560e01c8063b2c791231161008c578063c128e4c111610066578063c128e4c114610244578063d41022a114610260578063d637dcfa14610293578063dca5b477146102af576100cf565b8063b2c79123146101d5578063b7abccc0146101f1578063b85f7d5714610226576100cf565b806318046ae1146100d45780631bc9ec0a146101045780632be46c3c14610134578063472f6dde146101645780634cbee813146101805780638dd2361c1461019c575b600080fd5b6100ee60048036038101906100e99190611da2565b6102cb565b6040516100fb9190612923565b60405180910390f35b61011e600480360381019061011991906120e7565b6104c7565b60405161012b9190612945565b60405180910390f35b61014e60048036038101906101499190611da2565b610572565b60405161015b9190612677565b60405180910390f35b61017e60048036038101906101799190611ee6565b6105a8565b005b61019a60048036038101906101959190611da2565b610802565b005b6101b660048036038101906101b191906120e7565b6108e4565b6040516101cc9a9998979695949392919061271d565b60405180910390f35b6101ef60048036038101906101ea9190611de3565b610c88565b005b61020b600480360381019061020691906120e7565b610f40565b60405161021d96959493929190612692565b60405180910390f35b61022e611339565b60405161023b9190612945565b60405180910390f35b61025e60048036038101906102599190612080565b61133f565b005b61027a600480360381019061027591906120e7565b611658565b60405161028a9493929190612a68565b60405180910390f35b6102ad60048036038101906102a89190611e4f565b611720565b005b6102c960048036038101906102c4919061202c565b611981565b005b6102d3611c25565b6001826040516102e391906125c1565b90815260200160405180910390206040518060e001604052908160008201805461030c90612cbf565b80601f016020809104026020016040519081016040528092919081815260200182805461033890612cbf565b80156103855780601f1061035a57610100808354040283529160200191610385565b820191906000526020600020905b81548152906001019060200180831161036857829003601f168201915b5050505050815260200160018201805461039e90612cbf565b80601f01602080910402602001604051908101604052809291908181526020018280546103ca90612cbf565b80156104175780601f106103ec57610100808354040283529160200191610417565b820191906000526020600020905b8154815290600101906020018083116103fa57829003601f168201915b505050505081526020016002820160009054906101000a900473ffffffffffffffffffffffffffffffffffffffff1673ffffffffffffffffffffffffffffffffffffffff1673ffffffffffffffffffffffffffffffffffffffff16815260200160038201548152602001600482015481526020016005820160009054906101000a900460ff161515151581526020016005820160019054906101000a900460ff1615151515815250509050919050565b60008060008084815260200190815260200160002060000180546104ea90612cbf565b90501161052c576040517f08c379a0000000000000000000000000000000000000000000000000000000008152600401610523906128a3565b60405180910390fd5b60008060008481526020019081526020016000209050600081600701541461056757806007015481600601546105629190612b9c565b61056a565b60005b915050919050565b6002818051602081018201805184825260208301602085012081835280955050505050506000915054906101000a900460ff1681565b866001816040516105b991906125c1565b908152602001604051809103902060050160009054906101000a900460ff16610617576040517f08c379a000000000000000000000000000000000000000000000000000000000815260040161060e90612843565b60405180910390fd5b60018160405161062791906125c1565b908152602001604051809103902060050160019054906101000a900460ff16610685576040517f08c379a000000000000000000000000000000000000000000000000000000000815260040161067c90612823565b60405180910390fd5b6000600354905060008060008381526020019081526020016000209050888160000190805190602001906106ba929190611c82565b50878160010190805190602001906106d3929190611c82565b50868160020190805190602001906106ec929190611c82565b5085816003019080519060200190610705929190611c82565b508481600401908051906020019061071e929190611c82565b5083816005019080519060200190610737929190611c82565b506000816006018190555060008160070181905550600081600801819055503381600b0160006101000a81548173ffffffffffffffffffffffffffffffffffffffff021916908373ffffffffffffffffffffffffffffffffffffffff160217905550600360008154809291906107ac90612cf1565b91905055507fff6eb19e50e53d0b65049777ab9e5504ff9236470d06d4a21355033e0c3d3565828a8a8a8a8a8a336040516107ee9897969594939291906129c0565b60405180910390a150505050505050505050565b60018160405161081291906125c1565b908152602001604051809103902060050160019054906101000a900460ff16610870576040517f08c379a0000000000000000000000000000000000000000000000000000000008152600401610867906128c3565b60405180910390fd5b600060018260405161088291906125c1565b908152602001604051809103902060050160016101000a81548160ff0219169083151502179055507fc6ef449222bae3754898fc5fa944d52dfc53c0ee1fdd7d733fbb422ac5e2b8c8336040516108d9919061262c565b60405180910390a150565b600060205280600052604060002060009150905080600001805461090790612cbf565b80601f016020809104026020016040519081016040528092919081815260200182805461093390612cbf565b80156109805780601f1061095557610100808354040283529160200191610980565b820191906000526020600020905b81548152906001019060200180831161096357829003601f168201915b50505050509080600101805461099590612cbf565b80601f01602080910402602001604051908101604052809291908181526020018280546109c190612cbf565b8015610a0e5780601f106109e357610100808354040283529160200191610a0e565b820191906000526020600020905b8154815290600101906020018083116109f157829003601f168201915b505050505090806002018054610a2390612cbf565b80601f0160208091040260200160405190810160405280929190818152602001828054610a4f90612cbf565b8015610a9c5780601f10610a7157610100808354040283529160200191610a9c565b820191906000526020600020905b815481529060010190602001808311610a7f57829003601f168201915b505050505090806003018054610ab190612cbf565b80601f0160208091040260200160405190810160405280929190818152602001828054610add90612cbf565b8015610b2a5780601f10610aff57610100808354040283529160200191610b2a565b820191906000526020600020905b815481529060010190602001808311610b0d57829003601f168201915b505050505090806004018054610b3f90612cbf565b80601f0160208091040260200160405190810160405280929190818152602001828054610b6b90612cbf565b8015610bb85780601f10610b8d57610100808354040283529160200191610bb8565b820191906000526020600020905b815481529060010190602001808311610b9b57829003601f168201915b505050505090806005018054610bcd90612cbf565b80601f0160208091040260200160405190810160405280929190818152602001828054610bf990612cbf565b8015610c465780601f10610c1b57610100808354040283529160200191610c46565b820191906000526020600020905b815481529060010190602001808311610c2957829003601f168201915b50505050509080600601549080600701549080600801549080600b0160009054906101000a900473ffffffffffffffffffffffffffffffffffffffff1690508a565b600182604051610c9891906125c1565b908152602001604051809103902060050160009054906101000a900460ff16610cf6576040517f08c379a0000000000000000000000000000000000000000000000000000000008152600401610ced90612863565b60405180910390fd5b3373ffffffffffffffffffffffffffffffffffffffff16600183604051610d1d91906125c1565b908152602001604051809103902060020160009054906101000a900473ffffffffffffffffffffffffffffffffffffffff1673ffffffffffffffffffffffffffffffffffffffff1614610da5576040517f08c379a0000000000000000000000000000000000000000000000000000000008152600401610d9c906128e3565b60405180910390fd5b6000600183604051610db791906125c1565b908152602001604051809103902060040154905060008282604051602001610de09291906125d8565b60405160208183030381529060405280519060200120905080600185604051610e0991906125c1565b90815260200160405180910390206003015414610e5b576040517f08c379a0000000000000000000000000000000000000000000000000000000008152600401610e5290612803565b60405180910390fd5b600184604051610e6b91906125c1565b908152602001604051809103902060050160019054906101000a900460ff1615610eca576040517f08c379a0000000000000000000000000000000000000000000000000000000008152600401610ec1906127e3565b60405180910390fd5b60018085604051610edb91906125c1565b908152602001604051809103902060050160016101000a81548160ff0219169083151502179055507f8d15fde878cff665868ed7579eb5081db6508d4249df61dcdd7699a5301d987433604051610f32919061262c565b60405180910390a150505050565b60608060608060608060008060008981526020019081526020016000206000018054610f6b90612cbf565b905011610fad576040517f08c379a0000000000000000000000000000000000000000000000000000000008152600401610fa4906128a3565b60405180910390fd5b60008060008981526020019081526020016000209050806000018160010182600201836003018460040185600501858054610fe790612cbf565b80601f016020809104026020016040519081016040528092919081815260200182805461101390612cbf565b80156110605780601f1061103557610100808354040283529160200191611060565b820191906000526020600020905b81548152906001019060200180831161104357829003601f168201915b5050505050955084805461107390612cbf565b80601f016020809104026020016040519081016040528092919081815260200182805461109f90612cbf565b80156110ec5780601f106110c1576101008083540402835291602001916110ec565b820191906000526020600020905b8154815290600101906020018083116110cf57829003601f168201915b505050505094508380546110ff90612cbf565b80601f016020809104026020016040519081016040528092919081815260200182805461112b90612cbf565b80156111785780601f1061114d57610100808354040283529160200191611178565b820191906000526020600020905b81548152906001019060200180831161115b57829003601f168201915b5050505050935082805461118b90612cbf565b80601f01602080910402602001604051908101604052809291908181526020018280546111b790612cbf565b80156112045780601f106111d957610100808354040283529160200191611204565b820191906000526020600020905b8154815290600101906020018083116111e757829003601f168201915b5050505050925081805461121790612cbf565b80601f016020809104026020016040519081016040528092919081815260200182805461124390612cbf565b80156112905780601f1061126557610100808354040283529160200191611290565b820191906000526020600020905b81548152906001019060200180831161127357829003601f168201915b505050505091508080546112a390612cbf565b80601f01602080910402602001604051908101604052809291908181526020018280546112cf90612cbf565b801561131c5780601f106112f15761010080835404028352916020019161131c565b820191906000526020600020905b8154815290600101906020018083116112ff57829003601f168201915b505050505090509650965096509650965096505091939550919395565b60035481565b8260018160405161135091906125c1565b908152602001604051809103902060050160009054906101000a900460ff166113ae576040517f08c379a00000000000000000000000000000000000000000000000000000000081526004016113a590612843565b60405180910390fd5b6001816040516113be91906125c1565b908152602001604051809103902060050160019054906101000a900460ff1661141c576040517f08c379a000000000000000000000000000000000000000000000000000000000815260040161141390612823565b60405180910390fd5b6001821015801561142e575060058211155b61146d576040517f08c379a000000000000000000000000000000000000000000000000000000000815260040161146490612903565b60405180910390fd5b6000806000858152602001908152602001600020600001805461148f90612cbf565b9050116114d1576040517f08c379a00000000000000000000000000000000000000000000000000000000081526004016114c8906128a3565b60405180910390fd5b6000806000858152602001908152602001600020905060008160090160003373ffffffffffffffffffffffffffffffffffffffff1673ffffffffffffffffffffffffffffffffffffffff16815260200190815260200160002054111561159a57828160090160003373ffffffffffffffffffffffffffffffffffffffff1673ffffffffffffffffffffffffffffffffffffffff1681526020019081526020016000205482600601546115839190612bcd565b61158d9190612b46565b81600601819055506115d0565b828160060160008282546115ae9190612b46565b925050819055508060070160008154809291906115ca90612cf1565b91905055505b828160090160003373ffffffffffffffffffffffffffffffffffffffff1673ffffffffffffffffffffffffffffffffffffffff168152602001908152602001600020819055507f5a90108db35c713ec6356a9abbb3f1f006f75e48a06998c0616e9dbe5dea641084338560405161164993929190612989565b60405180910390a15050505050565b6000806000806000806000878152602001908152602001600020600001805461168090612cbf565b9050116116c2576040517f08c379a00000000000000000000000000000000000000000000000000000000081526004016116b9906128a3565b60405180910390fd5b600080600087815260200190815260200160002090506116e1866104c7565b8160070154826008015483600b0160009054906101000a900473ffffffffffffffffffffffffffffffffffffffff169450945094509450509193509193565b60028260405161173091906125c1565b908152602001604051809103902060009054906101000a900460ff161561178c576040517f08c379a000000000000000000000000000000000000000000000000000000000815260040161178390612883565b60405180910390fd5b6000611796611bf5565b9050600082826040516020016117ad9291906125d8565b6040516020818303038152906040528051906020012090506040518060e001604052808681526020018581526020013373ffffffffffffffffffffffffffffffffffffffff1681526020018281526020018381526020016001151581526020016000151581525060018560405161182491906125c1565b9081526020016040518091039020600082015181600001908051906020019061184e929190611c82565b50602082015181600101908051906020019061186b929190611c82565b5060408201518160020160006101000a81548173ffffffffffffffffffffffffffffffffffffffff021916908373ffffffffffffffffffffffffffffffffffffffff160217905550606082015181600301556080820151816004015560a08201518160050160006101000a81548160ff02191690831515021790555060c08201518160050160016101000a81548160ff021916908315150217905550905050600160028560405161191c91906125c1565b908152602001604051809103902060006101000a81548160ff0219169083151502179055507f48cac28ad4dc618e15f4c2dd5e97751182f166de97b25618318b2112aa951a2f3386604051611972929190612647565b60405180910390a15050505050565b8160018160405161199291906125c1565b908152602001604051809103902060050160009054906101000a900460ff166119f0576040517f08c379a00000000000000000000000000000000000000000000000000000000081526004016119e790612843565b60405180910390fd5b600181604051611a0091906125c1565b908152602001604051809103902060050160019054906101000a900460ff16611a5e576040517f08c379a0000000000000000000000000000000000000000000000000000000008152600401611a5590612823565b60405180910390fd5b6000806000848152602001908152602001600020905080600a0160003373ffffffffffffffffffffffffffffffffffffffff1673ffffffffffffffffffffffffffffffffffffffff16815260200190815260200160002060009054906101000a900460ff1615611b4157600081600a0160003373ffffffffffffffffffffffffffffffffffffffff1673ffffffffffffffffffffffffffffffffffffffff16815260200190815260200160002060006101000a81548160ff021916908315150217905550806008016000815480929190611b3790612c95565b9190505550611bb6565b600181600a0160003373ffffffffffffffffffffffffffffffffffffffff1673ffffffffffffffffffffffffffffffffffffffff16815260200190815260200160002060006101000a81548160ff021916908315150217905550806008016000815480929190611bb090612cf1565b91905055505b7f16cbc6f742dcf78c5d0f58c5388cd298787bc75f6cad1423a17c3abe3723c5b88333604051611be7929190612960565b60405180910390a150505050565b60004233604051602001611c0a929190612600565b60405160208183030381529060405280519060200120905090565b6040518060e001604052806060815260200160608152602001600073ffffffffffffffffffffffffffffffffffffffff16815260200160008019168152602001600080191681526020016000151581526020016000151581525090565b828054611c8e90612cbf565b90600052602060002090601f016020900481019282611cb05760008555611cf7565b82601f10611cc957805160ff1916838001178555611cf7565b82800160010185558215611cf7579182015b82811115611cf6578251825591602001919060010190611cdb565b5b509050611d049190611d08565b5090565b5b80821115611d21576000816000905550600101611d09565b5090565b6000611d38611d3384612ade565b612aad565b905082815260208101848484011115611d5057600080fd5b611d5b848285612c53565b509392505050565b600082601f830112611d7457600080fd5b8135611d84848260208601611d25565b91505092915050565b600081359050611d9c81612e4c565b92915050565b600060208284031215611db457600080fd5b600082013567ffffffffffffffff811115611dce57600080fd5b611dda84828501611d63565b91505092915050565b60008060408385031215611df657600080fd5b600083013567ffffffffffffffff811115611e1057600080fd5b611e1c85828601611d63565b925050602083013567ffffffffffffffff811115611e3957600080fd5b611e4585828601611d63565b9150509250929050565b600080600060608486031215611e6457600080fd5b600084013567ffffffffffffffff811115611e7e57600080fd5b611e8a86828701611d63565b935050602084013567ffffffffffffffff811115611ea757600080fd5b611eb386828701611d63565b925050604084013567ffffffffffffffff811115611ed057600080fd5b611edc86828701611d63565b9150509250925092565b600080600080600080600060e0888a031215611f0157600080fd5b600088013567ffffffffffffffff811115611f1b57600080fd5b611f278a828b01611d63565b975050602088013567ffffffffffffffff811115611f4457600080fd5b611f508a828b01611d63565b965050604088013567ffffffffffffffff811115611f6d57600080fd5b611f798a828b01611d63565b955050606088013567ffffffffffffffff811115611f9657600080fd5b611fa28a828b01611d63565b945050608088013567ffffffffffffffff811115611fbf57600080fd5b611fcb8a828b01611d63565b93505060a088013567ffffffffffffffff811115611fe857600080fd5b611ff48a828b01611d63565b92505060c088013567ffffffffffffffff81111561201157600080fd5b61201d8a828b01611d63565b91505092959891949750929550565b6000806040838503121561203f57600080fd5b600083013567ffffffffffffffff81111561205957600080fd5b61206585828601611d63565b925050602061207685828601611d8d565b9150509250929050565b60008060006060848603121561209557600080fd5b600084013567ffffffffffffffff8111156120af57600080fd5b6120bb86828701611d63565b93505060206120cc86828701611d8d565b92505060406120dd86828701611d8d565b9150509250925092565b6000602082840312156120f957600080fd5b600061210784828501611d8d565b91505092915050565b61211981612c01565b82525050565b61212881612c01565b82525050565b61213f61213a82612c01565b612d3a565b82525050565b61214e81612c13565b82525050565b61215d81612c13565b82525050565b61216c81612c1f565b82525050565b61218361217e82612c1f565b612d4c565b82525050565b600061219482612b0e565b61219e8185612b19565b93506121ae818560208601612c62565b6121b781612e2e565b840191505092915050565b60006121cd82612b0e565b6121d78185612b2a565b93506121e7818560208601612c62565b6121f081612e2e565b840191505092915050565b600061220682612b0e565b6122108185612b3b565b9350612220818560208601612c62565b80840191505092915050565b6000612239601083612b2a565b91507f416e6461207375646168206c6f67696e000000000000000000000000000000006000830152602082019050919050565b6000612279600e83612b2a565b91507f50617373776f72642073616c61680000000000000000000000000000000000006000830152602082019050919050565b60006122b9602483612b2a565b91507f416e6461206861727573206c6f67696e20756e74756b206d656c616b756b616e60008301527f20696e69000000000000000000000000000000000000000000000000000000006020830152604082019050919050565b600061231f602883612b2a565b91507f416e64612068617275732074657264616674617220756e74756b206d656c616b60008301527f756b616e20696e690000000000000000000000000000000000000000000000006020830152604082019050919050565b6000612385601883612b2a565b91507f50656e6767756e612062656c756d2074657264616674617200000000000000006000830152602082019050919050565b60006123c5601583612b2a565b91507f456d61696c2073756461682074657264616674617200000000000000000000006000830152602082019050919050565b6000612405601783612b2a565b91507f54616e616d616e20746964616b20646974656d756b616e0000000000000000006000830152602082019050919050565b6000612445601083612b2a565b91507f416e64612062656c756d206c6f67696e000000000000000000000000000000006000830152602082019050919050565b6000612485601f83612b2a565b91507f416c616d617420746964616b20636f636f6b2064656e67616e20656d61696c006000830152602082019050919050565b60006124c5601b83612b2a565b91507f526174696e6720686172757320616e7461726120312064616e203500000000006000830152602082019050919050565b600060e08301600083015184820360008601526125158282612189565b9150506020830151848203602086015261252f8282612189565b91505060408301516125446040860182612110565b5060608301516125576060860182612163565b50608083015161256a6080860182612163565b5060a083015161257d60a0860182612145565b5060c083015161259060c0860182612145565b508091505092915050565b6125a481612c49565b82525050565b6125bb6125b682612c49565b612d68565b82525050565b60006125cd82846121fb565b915081905092915050565b60006125e482856121fb565b91506125f08284612172565b6020820191508190509392505050565b600061260c82856125aa565b60208201915061261c828461212e565b6014820191508190509392505050565b6000602082019050612641600083018461211f565b92915050565b600060408201905061265c600083018561211f565b818103602083015261266e81846121c2565b90509392505050565b600060208201905061268c6000830184612154565b92915050565b600060c08201905081810360008301526126ac81896121c2565b905081810360208301526126c081886121c2565b905081810360408301526126d481876121c2565b905081810360608301526126e881866121c2565b905081810360808301526126fc81856121c2565b905081810360a083015261271081846121c2565b9050979650505050505050565b6000610140820190508181036000830152612738818d6121c2565b9050818103602083015261274c818c6121c2565b90508181036040830152612760818b6121c2565b90508181036060830152612774818a6121c2565b9050818103608083015261278881896121c2565b905081810360a083015261279c81886121c2565b90506127ab60c083018761259b565b6127b860e083018661259b565b6127c661010083018561259b565b6127d461012083018461211f565b9b9a5050505050505050505050565b600060208201905081810360008301526127fc8161222c565b9050919050565b6000602082019050818103600083015261281c8161226c565b9050919050565b6000602082019050818103600083015261283c816122ac565b9050919050565b6000602082019050818103600083015261285c81612312565b9050919050565b6000602082019050818103600083015261287c81612378565b9050919050565b6000602082019050818103600083015261289c816123b8565b9050919050565b600060208201905081810360008301526128bc816123f8565b9050919050565b600060208201905081810360008301526128dc81612438565b9050919050565b600060208201905081810360008301526128fc81612478565b9050919050565b6000602082019050818103600083015261291c816124b8565b9050919050565b6000602082019050818103600083015261293d81846124f8565b905092915050565b600060208201905061295a600083018461259b565b92915050565b6000604082019050612975600083018561259b565b612982602083018461211f565b9392505050565b600060608201905061299e600083018661259b565b6129ab602083018561211f565b6129b8604083018461259b565b949350505050565b6000610100820190506129d6600083018b61259b565b81810360208301526129e8818a6121c2565b905081810360408301526129fc81896121c2565b90508181036060830152612a1081886121c2565b90508181036080830152612a2481876121c2565b905081810360a0830152612a3881866121c2565b905081810360c0830152612a4c81856121c2565b9050612a5b60e083018461211f565b9998505050505050505050565b6000608082019050612a7d600083018761259b565b612a8a602083018661259b565b612a97604083018561259b565b612aa4606083018461211f565b95945050505050565b6000604051905081810181811067ffffffffffffffff82111715612ad457612ad3612dff565b5b8060405250919050565b600067ffffffffffffffff821115612af957612af8612dff565b5b601f19601f8301169050602081019050919050565b600081519050919050565b600082825260208201905092915050565b600082825260208201905092915050565b600081905092915050565b6000612b5182612c49565b9150612b5c83612c49565b9250827fffffffffffffffffffffffffffffffffffffffffffffffffffffffffffffffff03821115612b9157612b90612d72565b5b828201905092915050565b6000612ba782612c49565b9150612bb283612c49565b925082612bc257612bc1612da1565b5b828204905092915050565b6000612bd882612c49565b9150612be383612c49565b925082821015612bf657612bf5612d72565b5b828203905092915050565b6000612c0c82612c29565b9050919050565b60008115159050919050565b6000819050919050565b600073ffffffffffffffffffffffffffffffffffffffff82169050919050565b6000819050919050565b82818337600083830152505050565b60005b83811015612c80578082015181840152602081019050612c65565b83811115612c8f576000848401525b50505050565b6000612ca082612c49565b91506000821415612cb457612cb3612d72565b5b600182039050919050565b60006002820490506001821680612cd757607f821691505b60208210811415612ceb57612cea612dd0565b5b50919050565b6000612cfc82612c49565b91507fffffffffffffffffffffffffffffffffffffffffffffffffffffffffffffffff821415612d2f57612d2e612d72565b5b600182019050919050565b6000612d4582612d56565b9050919050565b6000819050919050565b6000612d6182612e3f565b9050919050565b6000819050919050565b7f4e487b7100000000000000000000000000000000000000000000000000000000600052601160045260246000fd5b7f4e487b7100000000000000000000000000000000000000000000000000000000600052601260045260246000fd5b7f4e487b7100000000000000000000000000000000000000000000000000000000600052602260045260246000fd5b7f4e487b7100000000000000000000000000000000000000000000000000000000600052604160045260246000fd5b6000601f19601f8301169050919050565b60008160601b9050919050565b612e5581612c49565b8114612e6057600080fd5b5056fea2646970667358221220ae70ce77fcf757d39d5511893cabd2697b6c7d47ef45f89e7fa468dcdb5d464164736f6c63430008000033",
  "immutableReferences": {},
  "source": "// SPDX-License-Identifier: MIT\r\n\r\npragma solidity ^0.8.0;\r\n\r\ncontract HerbalPlant {\r\n    // Struktur data untuk tanaman\r\n    struct Plant {\r\n        string name;                // Nama Tanaman\r\n        string namaLatin;            // Nama Latin Tanaman\r\n        string komposisi;            // Komposisi/Kandungan Tanaman\r\n        string kegunaan;             // Manfaat Tanaman\r\n        string caraPengolahan;        // Cara Pengolahan Tanaman\r\n        string ipfsHash;            // Menyimpan CID dari IPFS\r\n        uint ratingTotal;\r\n        uint ratingCount;\r\n        uint likeCount;             // Menghitung jumlah like\r\n        mapping(address => uint) ratings; // Menyimpan rating bintang per pengguna\r\n        mapping(address => bool) liked;   // Menghindari like ganda\r\n        address owner;\r\n    }\r\n\r\n    // Struktur data untuk pengguna\r\n    struct User {\r\n        string fullName;\r\n        string email;\r\n        address publicKey;\r\n        bytes32 passwordHash;\r\n        bytes32 salt;\r\n        bool isRegistered;\r\n        bool isLoggedIn;\r\n    }\r\n\r\n    // Mappings untuk menyimpan data tanaman dan pengguna\r\n    mapping(uint => Plant) public plants;\r\n    mapping(string => User) private usersByEmail; // Simpan user berdasarkan email\r\n    mapping(string => bool) public emailExists;\r\n    uint public plantCount;\r\n\r\n    // Events untuk logging aktivitas\r\n    event PlantAdded(uint plantId, string name, string namaLatin, string komposisi, string kegunaan, string caraPengolahan, string ipfsHash, address owner);\r\n    event PlantRated(uint plantId, address user, uint rating);\r\n    event UserRegistered(address user, string fullName);\r\n    event UserLoggedIn(address user);\r\n    event UserLoggedOut(address user);\r\n    event PlantLiked(uint plantId, address user);\r\n\r\n    // Modifiers untuk membatasi akses fungsi\r\n    modifier onlyRegisteredUser(string memory email) {\r\n        require(usersByEmail[email].isRegistered, \"Anda harus terdaftar untuk melakukan ini\");\r\n        require(usersByEmail[email].isLoggedIn, \"Anda harus login untuk melakukan ini\");\r\n        _;\r\n    }\r\n\r\n    modifier onlyOwner(uint plantId) {\r\n        require(msg.sender == plants[plantId].owner, \"Anda bukan pemilik tanaman ini\");\r\n        _;\r\n    }\r\n\r\n    // Fungsi untuk menghasilkan salt secara acak\r\n    function generateSalt() private view returns (bytes32) {\r\n        return keccak256(abi.encodePacked(block.timestamp, msg.sender));\r\n    }\r\n\r\n    // Fungsi-fungsi untuk manajemen pengguna\r\n    function registerUser(string memory fullName, string memory email, string memory password) public {\r\n        require(!emailExists[email], \"Email sudah terdaftar\");\r\n\r\n        bytes32 salt = generateSalt();\r\n        bytes32 hashedPassword = keccak256(abi.encodePacked(password, salt));\r\n\r\n        usersByEmail[email] = User({\r\n            fullName: fullName,\r\n            email: email,\r\n            publicKey: msg.sender,\r\n            passwordHash: hashedPassword,\r\n            salt: salt,\r\n            isRegistered: true,\r\n            isLoggedIn: false\r\n        });\r\n\r\n        emailExists[email] = true;\r\n        emit UserRegistered(msg.sender, fullName);\r\n    }\r\n\r\n    function loginWithEmail(string memory email, string memory password) public {\r\n        require(usersByEmail[email].isRegistered, \"Pengguna belum terdaftar\");\r\n        require(usersByEmail[email].publicKey == msg.sender, \"Alamat tidak cocok dengan email\");\r\n        bytes32 salt = usersByEmail[email].salt;\r\n        bytes32 hashedPassword = keccak256(abi.encodePacked(password, salt));\r\n\r\n        require(usersByEmail[email].passwordHash == hashedPassword, \"Password salah\");\r\n        require(!usersByEmail[email].isLoggedIn, \"Anda sudah login\");\r\n        \r\n        usersByEmail[email].isLoggedIn = true;\r\n        emit UserLoggedIn(msg.sender);\r\n    }\r\n\r\n    function logout(string memory email) public {\r\n        require(usersByEmail[email].isLoggedIn, \"Anda belum login\");\r\n        usersByEmail[email].isLoggedIn = false;\r\n        emit UserLoggedOut(msg.sender);\r\n    }\r\n\r\n    // Fungsi-fungsi untuk manajemen tanaman\r\n    function addPlant(string memory email, string memory name, string memory namaLatin, string memory komposisi, string memory kegunaan, string memory caraPengolahan, string memory ipfsHash) public onlyRegisteredUser(email) {\r\n        uint plantId = plantCount;\r\n        Plant storage plant = plants[plantId];\r\n        plant.name = name;\r\n        plant.namaLatin = namaLatin;\r\n        plant.komposisi = komposisi;\r\n        plant.kegunaan = kegunaan;\r\n        plant.caraPengolahan = caraPengolahan;\r\n        plant.ipfsHash = ipfsHash;\r\n        plant.ratingTotal = 0;\r\n        plant.ratingCount = 0;\r\n        plant.likeCount = 0;\r\n        plant.owner = msg.sender;\r\n\r\n        plantCount++;\r\n        emit PlantAdded(plantId, name, namaLatin, komposisi, kegunaan, caraPengolahan, ipfsHash, msg.sender);\r\n    }\r\n\r\n    function ratePlant(string memory email, uint plantId, uint rating) public onlyRegisteredUser(email) {\r\n        require(rating >= 1 && rating <= 5, \"Rating harus antara 1 dan 5\");\r\n        require(bytes(plants[plantId].name).length > 0, \"Tanaman tidak ditemukan\");\r\n\r\n        Plant storage plant = plants[plantId];\r\n\r\n        if (plant.ratings[msg.sender] > 0) {\r\n            plant.ratingTotal = plant.ratingTotal - plant.ratings[msg.sender] + rating;\r\n        } else {\r\n            plant.ratingTotal += rating;\r\n            plant.ratingCount++;\r\n        }\r\n\r\n        plant.ratings[msg.sender] = rating;\r\n        emit PlantRated(plantId, msg.sender, rating);\r\n    }\r\n\r\n    function likePlant(string memory email, uint plantId) public onlyRegisteredUser(email) {\r\n        Plant storage plant = plants[plantId];\r\n\r\n        if (plant.liked[msg.sender]) {\r\n            plant.liked[msg.sender] = false;\r\n            plant.likeCount--;\r\n        } else {\r\n            plant.liked[msg.sender] = true;\r\n            plant.likeCount++;\r\n        }\r\n        emit PlantLiked(plantId, msg.sender);\r\n    }\r\n\r\n    // Fungsi-fungsi untuk mendapatkan informasi tanaman\r\n    function getPlantRating(uint plantId) public view returns (uint averageRating) {\r\n        require(bytes(plants[plantId].name).length > 0, \"Tanaman tidak ditemukan\");\r\n        Plant storage plant = plants[plantId];\r\n        return plant.ratingCount == 0 ? 0 : plant.ratingTotal / plant.ratingCount;\r\n    }\r\n\r\n    function getPlantBasicInfo(uint plantId) public view returns (\r\n        string memory name,\r\n        string memory namaLatin,\r\n        string memory komposisi,\r\n        string memory kegunaan,\r\n        string memory caraPengolahan,\r\n        string memory ipfsHash\r\n    ) {\r\n        require(bytes(plants[plantId].name).length > 0, \"Tanaman tidak ditemukan\");\r\n        Plant storage plant = plants[plantId];\r\n        return (\r\n            plant.name,\r\n            plant.namaLatin,\r\n            plant.komposisi,\r\n            plant.kegunaan,\r\n            plant.caraPengolahan,\r\n            plant.ipfsHash\r\n        );\r\n    }\r\n\r\n    function getPlantMetrics(uint plantId) public view returns (\r\n        uint averageRating,\r\n        uint ratingCount,\r\n        uint likeCount,\r\n        address owner\r\n    ) {\r\n        require(bytes(plants[plantId].name).length > 0, \"Tanaman tidak ditemukan\");\r\n        Plant storage plant = plants[plantId];\r\n        return (\r\n            getPlantRating(plantId),\r\n            plant.ratingCount,\r\n            plant.likeCount,\r\n            plant.owner\r\n        );\r\n    }\r\n\r\n    // Getter function for user data\r\n    function getUserByEmail(string memory email) public view returns (User memory) {\r\n        return usersByEmail[email];\r\n    }\r\n}",
  "sourcePath": "D:\\Kuliah\\TA\\middleware\\contracts\\HerbalPlant.sol",
  "compiler": {
    "name": "solc",
    "version": "0.8.0+commit.c7dfd78e.Emscripten.clang"
  },
  "schemaVersion": "3.4.16",
  "updatedAt": "2025-02-27T03:30:41.217Z",
  "networkType": "ethereum",
  "devdoc": {
    "kind": "dev",
    "methods": {},
    "version": 1
  },
  "userdoc": {
    "kind": "user",
    "methods": {},
    "version": 1
  }
}