{
  "contractName": "HerbalPlant",
  "abi": [
    {
      "anonymous": false,
      "inputs": [
        {
          "indexed": false,
          "internalType": "uint256",
          "name": "plantId",
          "type": "uint256"
        },
        {
          "indexed": false,
          "internalType": "string",
          "name": "name",
          "type": "string"
        },
        {
          "indexed": false,
          "internalType": "string",
          "name": "namaLatin",
          "type": "string"
        },
        {
          "indexed": false,
          "internalType": "string",
          "name": "komposisi",
          "type": "string"
        },
        {
          "indexed": false,
          "internalType": "string",
          "name": "kegunaan",
          "type": "string"
        },
        {
          "indexed": false,
          "internalType": "string",
          "name": "caraPengolahan",
          "type": "string"
        },
        {
          "indexed": false,
          "internalType": "string",
          "name": "ipfsHash",
          "type": "string"
        },
        {
          "indexed": false,
          "internalType": "address",
          "name": "owner",
          "type": "address"
        }
      ],
      "name": "PlantAdded",
      "type": "event"
    },
    {
      "anonymous": false,
      "inputs": [
        {
          "indexed": false,
          "internalType": "uint256",
          "name": "plantId",
          "type": "uint256"
        },
        {
          "indexed": false,
          "internalType": "address",
          "name": "user",
          "type": "address"
        }
      ],
      "name": "PlantLiked",
      "type": "event"
    },
    {
      "anonymous": false,
      "inputs": [
        {
          "indexed": false,
          "internalType": "uint256",
          "name": "plantId",
          "type": "uint256"
        },
        {
          "indexed": false,
          "internalType": "address",
          "name": "user",
          "type": "address"
        },
        {
          "indexed": false,
          "internalType": "uint256",
          "name": "rating",
          "type": "uint256"
        }
      ],
      "name": "PlantRated",
      "type": "event"
    },
    {
      "anonymous": false,
      "inputs": [
        {
          "indexed": false,
          "internalType": "address",
          "name": "user",
          "type": "address"
        }
      ],
      "name": "UserLoggedIn",
      "type": "event"
    },
    {
      "anonymous": false,
      "inputs": [
        {
          "indexed": false,
          "internalType": "address",
          "name": "user",
          "type": "address"
        }
      ],
      "name": "UserLoggedOut",
      "type": "event"
    },
    {
      "anonymous": false,
      "inputs": [
        {
          "indexed": false,
          "internalType": "address",
          "name": "user",
          "type": "address"
        },
        {
          "indexed": false,
          "internalType": "string",
          "name": "fullName",
          "type": "string"
        }
      ],
      "name": "UserRegistered",
      "type": "event"
    },
    {
      "inputs": [
        {
          "internalType": "string",
          "name": "",
          "type": "string"
        }
      ],
      "name": "emailExists",
      "outputs": [
        {
          "internalType": "bool",
          "name": "",
          "type": "bool"
        }
      ],
      "stateMutability": "view",
      "type": "function",
      "constant": true
    },
    {
      "inputs": [],
      "name": "plantCount",
      "outputs": [
        {
          "internalType": "uint256",
          "name": "",
          "type": "uint256"
        }
      ],
      "stateMutability": "view",
      "type": "function",
      "constant": true
    },
    {
      "inputs": [
        {
          "internalType": "uint256",
          "name": "",
          "type": "uint256"
        }
      ],
      "name": "plants",
      "outputs": [
        {
          "internalType": "string",
          "name": "name",
          "type": "string"
        },
        {
          "internalType": "string",
          "name": "namaLatin",
          "type": "string"
        },
        {
          "internalType": "string",
          "name": "komposisi",
          "type": "string"
        },
        {
          "internalType": "string",
          "name": "kegunaan",
          "type": "string"
        },
        {
          "internalType": "string",
          "name": "caraPengolahan",
          "type": "string"
        },
        {
          "internalType": "string",
          "name": "ipfsHash",
          "type": "string"
        },
        {
          "internalType": "uint256",
          "name": "ratingTotal",
          "type": "uint256"
        },
        {
          "internalType": "uint256",
          "name": "ratingCount",
          "type": "uint256"
        },
        {
          "internalType": "uint256",
          "name": "likeCount",
          "type": "uint256"
        },
        {
          "internalType": "address",
          "name": "owner",
          "type": "address"
        }
      ],
      "stateMutability": "view",
      "type": "function",
      "constant": true
    },
    {
      "inputs": [
        {
          "internalType": "string",
          "name": "fullName",
          "type": "string"
        },
        {
          "internalType": "string",
          "name": "email",
          "type": "string"
        },
        {
          "internalType": "string",
          "name": "passwordHash",
          "type": "string"
        }
      ],
      "name": "registerUser",
      "outputs": [],
      "stateMutability": "nonpayable",
      "type": "function"
    },
    {
      "inputs": [
        {
          "internalType": "address",
          "name": "publicKey",
          "type": "address"
        },
        {
          "internalType": "string",
          "name": "passwordHash",
          "type": "string"
        }
      ],
      "name": "loginWithPublicKey",
      "outputs": [],
      "stateMutability": "nonpayable",
      "type": "function"
    },
    {
      "inputs": [
        {
          "internalType": "address",
          "name": "publicKey",
          "type": "address"
        }
      ],
      "name": "logout",
      "outputs": [],
      "stateMutability": "nonpayable",
      "type": "function"
    },
    {
      "inputs": [
        {
          "internalType": "address",
          "name": "publicKey",
          "type": "address"
        },
        {
          "internalType": "string",
          "name": "name",
          "type": "string"
        },
        {
          "internalType": "string",
          "name": "namaLatin",
          "type": "string"
        },
        {
          "internalType": "string",
          "name": "komposisi",
          "type": "string"
        },
        {
          "internalType": "string",
          "name": "kegunaan",
          "type": "string"
        },
        {
          "internalType": "string",
          "name": "caraPengolahan",
          "type": "string"
        },
        {
          "internalType": "string",
          "name": "ipfsHash",
          "type": "string"
        }
      ],
      "name": "addPlant",
      "outputs": [],
      "stateMutability": "nonpayable",
      "type": "function"
    },
    {
      "inputs": [
        {
          "internalType": "address",
          "name": "publicKey",
          "type": "address"
        },
        {
          "internalType": "uint256",
          "name": "plantId",
          "type": "uint256"
        },
        {
          "internalType": "uint256",
          "name": "rating",
          "type": "uint256"
        }
      ],
      "name": "ratePlant",
      "outputs": [],
      "stateMutability": "nonpayable",
      "type": "function"
    },
    {
      "inputs": [
        {
          "internalType": "address",
          "name": "publicKey",
          "type": "address"
        },
        {
          "internalType": "uint256",
          "name": "plantId",
          "type": "uint256"
        }
      ],
      "name": "likePlant",
      "outputs": [],
      "stateMutability": "nonpayable",
      "type": "function"
    },
    {
      "inputs": [
        {
          "internalType": "uint256",
          "name": "plantId",
          "type": "uint256"
        }
      ],
      "name": "getPlantRating",
      "outputs": [
        {
          "internalType": "uint256",
          "name": "averageRating",
          "type": "uint256"
        }
      ],
      "stateMutability": "view",
      "type": "function",
      "constant": true
    },
    {
      "inputs": [
        {
          "internalType": "uint256",
          "name": "plantId",
          "type": "uint256"
        }
      ],
      "name": "getPlantBasicInfo",
      "outputs": [
        {
          "internalType": "string",
          "name": "name",
          "type": "string"
        },
        {
          "internalType": "string",
          "name": "namaLatin",
          "type": "string"
        },
        {
          "internalType": "string",
          "name": "komposisi",
          "type": "string"
        },
        {
          "internalType": "string",
          "name": "kegunaan",
          "type": "string"
        },
        {
          "internalType": "string",
          "name": "caraPengolahan",
          "type": "string"
        },
        {
          "internalType": "string",
          "name": "ipfsHash",
          "type": "string"
        }
      ],
      "stateMutability": "view",
      "type": "function",
      "constant": true
    },
    {
      "inputs": [
        {
          "internalType": "uint256",
          "name": "plantId",
          "type": "uint256"
        }
      ],
      "name": "getPlantMetrics",
      "outputs": [
        {
          "internalType": "uint256",
          "name": "averageRating",
          "type": "uint256"
        },
        {
          "internalType": "uint256",
          "name": "ratingCount",
          "type": "uint256"
        },
        {
          "internalType": "uint256",
          "name": "likeCount",
          "type": "uint256"
        },
        {
          "internalType": "address",
          "name": "owner",
          "type": "address"
        }
      ],
      "stateMutability": "view",
      "type": "function",
      "constant": true
    },
    {
      "inputs": [
        {
          "internalType": "address",
          "name": "publicKey",
          "type": "address"
        }
      ],
      "name": "getUserByPublicKey",
      "outputs": [
        {
          "components": [
            {
              "internalType": "string",
              "name": "fullName",
              "type": "string"
            },
            {
              "internalType": "string",
              "name": "email",
              "type": "string"
            },
            {
              "internalType": "address",
              "name": "publicKey",
              "type": "address"
            },
            {
              "internalType": "string",
              "name": "passwordHash",
              "type": "string"
            },
            {
              "internalType": "bool",
              "name": "isRegistered",
              "type": "bool"
            },
            {
              "internalType": "bool",
              "name": "isLoggedIn",
              "type": "bool"
            }
          ],
          "internalType": "struct HerbalPlant.User",
          "name": "",
          "type": "tuple"
        }
      ],
      "stateMutability": "view",
      "type": "function",
      "constant": true
    }
  ],
  "bytecode": "0x608060405234801561001057600080fd5b50613025806100206000396000f3fe608060405234801561001057600080fd5b50600436106100cf5760003560e01c80639e4c711c1161008c578063cc51f9b911610066578063cc51f9b914610244578063d41022a114610260578063d637dcfa14610293578063f8a0f0da146102af576100cf565b80639e4c711c146101d5578063b7abccc0146101f1578063b85f7d5714610226576100cf565b80631bc9ec0a146100d45780632be46c3c146101045780632dacf4aa146101345780632f0e9b8d146101505780635095cb01146101805780638dd2361c1461019c575b600080fd5b6100ee60048036038101906100e991906122b4565b6102cb565b6040516100fb9190612af4565b60405180910390f35b61011e600480360381019061011991906121dc565b610376565b60405161012b9190612826565b60405180910390f35b61014e60048036038101906101499190612151565b6103ac565b005b61016a60048036038101906101659190611fa6565b610662565b6040516101779190612ad2565b60405180910390f35b61019a6004803603810190610195919061218d565b6108fd565b005b6101b660048036038101906101b191906122b4565b610c58565b6040516101cc9a999897969594939291906128cc565b60405180910390f35b6101ef60048036038101906101ea9190612023565b610ffc565b005b61020b600480360381019061020691906122b4565b611298565b60405161021d96959493929190612841565b60405180910390f35b61022e611691565b60405161023b9190612af4565b60405180910390f35b61025e60048036038101906102599190611fa6565b611697565b005b61027a600480360381019061027591906122b4565b6117bb565b60405161028a9493929190612c17565b60405180910390f35b6102ad60048036038101906102a8919061221d565b611883565b005b6102c960048036038101906102c49190611fcf565b611b9e565b005b60008060008084815260200190815260200160002060000180546102ee90612e79565b905011610330576040517f08c379a000000000000000000000000000000000000000000000000000000000815260040161032790612a52565b60405180910390fd5b60008060008481526020019081526020016000209050600081600701541461036b57806007015481600601546103669190612d60565b61036e565b60005b915050919050565b6002818051602081018201805184825260208301602085012081835280955050505050506000915054906101000a900460ff1681565b81600160008273ffffffffffffffffffffffffffffffffffffffff1673ffffffffffffffffffffffffffffffffffffffff16815260200190815260200160002060040160009054906101000a900460ff1661043c576040517f08c379a0000000000000000000000000000000000000000000000000000000008152600401610433906129f2565b60405180910390fd5b600160008273ffffffffffffffffffffffffffffffffffffffff1673ffffffffffffffffffffffffffffffffffffffff16815260200190815260200160002060040160019054906101000a900460ff166104cb576040517f08c379a00000000000000000000000000000000000000000000000000000000081526004016104c2906129d2565b60405180910390fd5b6000806000848152602001908152602001600020905080600a0160003373ffffffffffffffffffffffffffffffffffffffff1673ffffffffffffffffffffffffffffffffffffffff16815260200190815260200160002060009054906101000a900460ff16156105ae57600081600a0160003373ffffffffffffffffffffffffffffffffffffffff1673ffffffffffffffffffffffffffffffffffffffff16815260200190815260200160002060006101000a81548160ff0219169083151502179055508060080160008154809291906105a490612e4f565b9190505550610623565b600181600a0160003373ffffffffffffffffffffffffffffffffffffffff1673ffffffffffffffffffffffffffffffffffffffff16815260200190815260200160002060006101000a81548160ff02191690831515021790555080600801600081548092919061061d90612eab565b91905055505b7f16cbc6f742dcf78c5d0f58c5388cd298787bc75f6cad1423a17c3abe3723c5b88333604051610654929190612b0f565b60405180910390a150505050565b61066a611e21565b600160008373ffffffffffffffffffffffffffffffffffffffff1673ffffffffffffffffffffffffffffffffffffffff1681526020019081526020016000206040518060c00160405290816000820180546106c490612e79565b80601f01602080910402602001604051908101604052809291908181526020018280546106f090612e79565b801561073d5780601f106107125761010080835404028352916020019161073d565b820191906000526020600020905b81548152906001019060200180831161072057829003601f168201915b5050505050815260200160018201805461075690612e79565b80601f016020809104026020016040519081016040528092919081815260200182805461078290612e79565b80156107cf5780601f106107a4576101008083540402835291602001916107cf565b820191906000526020600020905b8154815290600101906020018083116107b257829003601f168201915b505050505081526020016002820160009054906101000a900473ffffffffffffffffffffffffffffffffffffffff1673ffffffffffffffffffffffffffffffffffffffff1673ffffffffffffffffffffffffffffffffffffffff16815260200160038201805461083e90612e79565b80601f016020809104026020016040519081016040528092919081815260200182805461086a90612e79565b80156108b75780601f1061088c576101008083540402835291602001916108b7565b820191906000526020600020905b81548152906001019060200180831161089a57829003601f168201915b505050505081526020016004820160009054906101000a900460ff161515151581526020016004820160019054906101000a900460ff1615151515815250509050919050565b82600160008273ffffffffffffffffffffffffffffffffffffffff1673ffffffffffffffffffffffffffffffffffffffff16815260200190815260200160002060040160009054906101000a900460ff1661098d576040517f08c379a0000000000000000000000000000000000000000000000000000000008152600401610984906129f2565b60405180910390fd5b600160008273ffffffffffffffffffffffffffffffffffffffff1673ffffffffffffffffffffffffffffffffffffffff16815260200190815260200160002060040160019054906101000a900460ff16610a1c576040517f08c379a0000000000000000000000000000000000000000000000000000000008152600401610a13906129d2565b60405180910390fd5b60018210158015610a2e575060058211155b610a6d576040517f08c379a0000000000000000000000000000000000000000000000000000000008152600401610a6490612ab2565b60405180910390fd5b60008060008581526020019081526020016000206000018054610a8f90612e79565b905011610ad1576040517f08c379a0000000000000000000000000000000000000000000000000000000008152600401610ac890612a52565b60405180910390fd5b6000806000858152602001908152602001600020905060008160090160003373ffffffffffffffffffffffffffffffffffffffff1673ffffffffffffffffffffffffffffffffffffffff168152602001908152602001600020541115610b9a57828160090160003373ffffffffffffffffffffffffffffffffffffffff1673ffffffffffffffffffffffffffffffffffffffff168152602001908152602001600020548260060154610b839190612d91565b610b8d9190612d0a565b8160060181905550610bd0565b82816006016000828254610bae9190612d0a565b92505081905550806007016000815480929190610bca90612eab565b91905055505b828160090160003373ffffffffffffffffffffffffffffffffffffffff1673ffffffffffffffffffffffffffffffffffffffff168152602001908152602001600020819055507f5a90108db35c713ec6356a9abbb3f1f006f75e48a06998c0616e9dbe5dea6410843385604051610c4993929190612b38565b60405180910390a15050505050565b6000602052806000526040600020600091509050806000018054610c7b90612e79565b80601f0160208091040260200160405190810160405280929190818152602001828054610ca790612e79565b8015610cf45780601f10610cc957610100808354040283529160200191610cf4565b820191906000526020600020905b815481529060010190602001808311610cd757829003601f168201915b505050505090806001018054610d0990612e79565b80601f0160208091040260200160405190810160405280929190818152602001828054610d3590612e79565b8015610d825780601f10610d5757610100808354040283529160200191610d82565b820191906000526020600020905b815481529060010190602001808311610d6557829003601f168201915b505050505090806002018054610d9790612e79565b80601f0160208091040260200160405190810160405280929190818152602001828054610dc390612e79565b8015610e105780601f10610de557610100808354040283529160200191610e10565b820191906000526020600020905b815481529060010190602001808311610df357829003601f168201915b505050505090806003018054610e2590612e79565b80601f0160208091040260200160405190810160405280929190818152602001828054610e5190612e79565b8015610e9e5780601f10610e7357610100808354040283529160200191610e9e565b820191906000526020600020905b815481529060010190602001808311610e8157829003601f168201915b505050505090806004018054610eb390612e79565b80601f0160208091040260200160405190810160405280929190818152602001828054610edf90612e79565b8015610f2c5780601f10610f0157610100808354040283529160200191610f2c565b820191906000526020600020905b815481529060010190602001808311610f0f57829003601f168201915b505050505090806005018054610f4190612e79565b80601f0160208091040260200160405190810160405280929190818152602001828054610f6d90612e79565b8015610fba5780601f10610f8f57610100808354040283529160200191610fba565b820191906000526020600020905b815481529060010190602001808311610f9d57829003601f168201915b50505050509080600601549080600701549080600801549080600b0160009054906101000a900473ffffffffffffffffffffffffffffffffffffffff1690508a565b86600160008273ffffffffffffffffffffffffffffffffffffffff1673ffffffffffffffffffffffffffffffffffffffff16815260200190815260200160002060040160009054906101000a900460ff1661108c576040517f08c379a0000000000000000000000000000000000000000000000000000000008152600401611083906129f2565b60405180910390fd5b600160008273ffffffffffffffffffffffffffffffffffffffff1673ffffffffffffffffffffffffffffffffffffffff16815260200190815260200160002060040160019054906101000a900460ff1661111b576040517f08c379a0000000000000000000000000000000000000000000000000000000008152600401611112906129d2565b60405180910390fd5b600060035490506000806000838152602001908152602001600020905088816000019080519060200190611150929190611e71565b5087816001019080519060200190611169929190611e71565b5086816002019080519060200190611182929190611e71565b508581600301908051906020019061119b929190611e71565b50848160040190805190602001906111b4929190611e71565b50838160050190805190602001906111cd929190611e71565b506000816006018190555060008160070181905550600081600801819055503381600b0160006101000a81548173ffffffffffffffffffffffffffffffffffffffff021916908373ffffffffffffffffffffffffffffffffffffffff1602179055506003600081548092919061124290612eab565b91905055507fff6eb19e50e53d0b65049777ab9e5504ff9236470d06d4a21355033e0c3d3565828a8a8a8a8a8a33604051611284989796959493929190612b6f565b60405180910390a150505050505050505050565b606080606080606080600080600089815260200190815260200160002060000180546112c390612e79565b905011611305576040517f08c379a00000000000000000000000000000000000000000000000000000000081526004016112fc90612a52565b60405180910390fd5b6000806000898152602001908152602001600020905080600001816001018260020183600301846004018560050185805461133f90612e79565b80601f016020809104026020016040519081016040528092919081815260200182805461136b90612e79565b80156113b85780601f1061138d576101008083540402835291602001916113b8565b820191906000526020600020905b81548152906001019060200180831161139b57829003601f168201915b505050505095508480546113cb90612e79565b80601f01602080910402602001604051908101604052809291908181526020018280546113f790612e79565b80156114445780601f1061141957610100808354040283529160200191611444565b820191906000526020600020905b81548152906001019060200180831161142757829003601f168201915b5050505050945083805461145790612e79565b80601f016020809104026020016040519081016040528092919081815260200182805461148390612e79565b80156114d05780601f106114a5576101008083540402835291602001916114d0565b820191906000526020600020905b8154815290600101906020018083116114b357829003601f168201915b505050505093508280546114e390612e79565b80601f016020809104026020016040519081016040528092919081815260200182805461150f90612e79565b801561155c5780601f106115315761010080835404028352916020019161155c565b820191906000526020600020905b81548152906001019060200180831161153f57829003601f168201915b5050505050925081805461156f90612e79565b80601f016020809104026020016040519081016040528092919081815260200182805461159b90612e79565b80156115e85780601f106115bd576101008083540402835291602001916115e8565b820191906000526020600020905b8154815290600101906020018083116115cb57829003601f168201915b505050505091508080546115fb90612e79565b80601f016020809104026020016040519081016040528092919081815260200182805461162790612e79565b80156116745780601f1061164957610100808354040283529160200191611674565b820191906000526020600020905b81548152906001019060200180831161165757829003601f168201915b505050505090509650965096509650965096505091939550919395565b60035481565b600160008273ffffffffffffffffffffffffffffffffffffffff1673ffffffffffffffffffffffffffffffffffffffff16815260200190815260200160002060040160019054906101000a900460ff16611726576040517f08c379a000000000000000000000000000000000000000000000000000000000815260040161171d90612a72565b60405180910390fd5b6000600160008373ffffffffffffffffffffffffffffffffffffffff1673ffffffffffffffffffffffffffffffffffffffff16815260200190815260200160002060040160016101000a81548160ff0219169083151502179055507fc6ef449222bae3754898fc5fa944d52dfc53c0ee1fdd7d733fbb422ac5e2b8c8816040516117b091906127db565b60405180910390a150565b600080600080600080600087815260200190815260200160002060000180546117e390612e79565b905011611825576040517f08c379a000000000000000000000000000000000000000000000000000000000815260040161181c90612a52565b60405180910390fd5b60008060008781526020019081526020016000209050611844866102cb565b8160070154826008015483600b0160009054906101000a900473ffffffffffffffffffffffffffffffffffffffff169450945094509450509193509193565b60028260405161189391906127ad565b908152602001604051809103902060009054906101000a900460ff16156118ef576040517f08c379a00000000000000000000000000000000000000000000000000000000081526004016118e690612a32565b60405180910390fd5b600073ffffffffffffffffffffffffffffffffffffffff16600160003373ffffffffffffffffffffffffffffffffffffffff1673ffffffffffffffffffffffffffffffffffffffff16815260200190815260200160002060020160009054906101000a900473ffffffffffffffffffffffffffffffffffffffff1673ffffffffffffffffffffffffffffffffffffffff16146119c0576040517f08c379a00000000000000000000000000000000000000000000000000000000081526004016119b790612a92565b60405180910390fd5b6040518060c001604052808481526020018381526020013373ffffffffffffffffffffffffffffffffffffffff16815260200182815260200160011515815260200160001515815250600160003373ffffffffffffffffffffffffffffffffffffffff1673ffffffffffffffffffffffffffffffffffffffff1681526020019081526020016000206000820151816000019080519060200190611a64929190611e71565b506020820151816001019080519060200190611a81929190611e71565b5060408201518160020160006101000a81548173ffffffffffffffffffffffffffffffffffffffff021916908373ffffffffffffffffffffffffffffffffffffffff1602179055506060820151816003019080519060200190611ae5929190611e71565b5060808201518160040160006101000a81548160ff02191690831515021790555060a08201518160040160016101000a81548160ff0219169083151502179055509050506001600283604051611b3b91906127ad565b908152602001604051809103902060006101000a81548160ff0219169083151502179055507f48cac28ad4dc618e15f4c2dd5e97751182f166de97b25618318b2112aa951a2f3384604051611b919291906127f6565b60405180910390a1505050565b600160008373ffffffffffffffffffffffffffffffffffffffff1673ffffffffffffffffffffffffffffffffffffffff16815260200190815260200160002060040160009054906101000a900460ff16611c2d576040517f08c379a0000000000000000000000000000000000000000000000000000000008152600401611c2490612a12565b60405180910390fd5b600160008373ffffffffffffffffffffffffffffffffffffffff1673ffffffffffffffffffffffffffffffffffffffff168152602001908152602001600020600301604051602001611c7f91906127c4565b6040516020818303038152906040528051906020012081604051602001611ca691906127ad565b6040516020818303038152906040528051906020012014611cfc576040517f08c379a0000000000000000000000000000000000000000000000000000000008152600401611cf3906129b2565b60405180910390fd5b600160008373ffffffffffffffffffffffffffffffffffffffff1673ffffffffffffffffffffffffffffffffffffffff16815260200190815260200160002060040160019054906101000a900460ff1615611d8c576040517f08c379a0000000000000000000000000000000000000000000000000000000008152600401611d8390612992565b60405180910390fd5b60018060008473ffffffffffffffffffffffffffffffffffffffff1673ffffffffffffffffffffffffffffffffffffffff16815260200190815260200160002060040160016101000a81548160ff0219169083151502179055507f8d15fde878cff665868ed7579eb5081db6508d4249df61dcdd7699a5301d987482604051611e1591906127db565b60405180910390a15050565b6040518060c001604052806060815260200160608152602001600073ffffffffffffffffffffffffffffffffffffffff168152602001606081526020016000151581526020016000151581525090565b828054611e7d90612e79565b90600052602060002090601f016020900481019282611e9f5760008555611ee6565b82601f10611eb857805160ff1916838001178555611ee6565b82800160010185558215611ee6579182015b82811115611ee5578251825591602001919060010190611eca565b5b509050611ef39190611ef7565b5090565b5b80821115611f10576000816000905550600101611ef8565b5090565b6000611f27611f2284612c8d565b612c5c565b905082815260208101848484011115611f3f57600080fd5b611f4a848285612e0d565b509392505050565b600081359050611f6181612fc1565b92915050565b600082601f830112611f7857600080fd5b8135611f88848260208601611f14565b91505092915050565b600081359050611fa081612fd8565b92915050565b600060208284031215611fb857600080fd5b6000611fc684828501611f52565b91505092915050565b60008060408385031215611fe257600080fd5b6000611ff085828601611f52565b925050602083013567ffffffffffffffff81111561200d57600080fd5b61201985828601611f67565b9150509250929050565b600080600080600080600060e0888a03121561203e57600080fd5b600061204c8a828b01611f52565b975050602088013567ffffffffffffffff81111561206957600080fd5b6120758a828b01611f67565b965050604088013567ffffffffffffffff81111561209257600080fd5b61209e8a828b01611f67565b955050606088013567ffffffffffffffff8111156120bb57600080fd5b6120c78a828b01611f67565b945050608088013567ffffffffffffffff8111156120e457600080fd5b6120f08a828b01611f67565b93505060a088013567ffffffffffffffff81111561210d57600080fd5b6121198a828b01611f67565b92505060c088013567ffffffffffffffff81111561213657600080fd5b6121428a828b01611f67565b91505092959891949750929550565b6000806040838503121561216457600080fd5b600061217285828601611f52565b925050602061218385828601611f91565b9150509250929050565b6000806000606084860312156121a257600080fd5b60006121b086828701611f52565b93505060206121c186828701611f91565b92505060406121d286828701611f91565b9150509250925092565b6000602082840312156121ee57600080fd5b600082013567ffffffffffffffff81111561220857600080fd5b61221484828501611f67565b91505092915050565b60008060006060848603121561223257600080fd5b600084013567ffffffffffffffff81111561224c57600080fd5b61225886828701611f67565b935050602084013567ffffffffffffffff81111561227557600080fd5b61228186828701611f67565b925050604084013567ffffffffffffffff81111561229e57600080fd5b6122aa86828701611f67565b9150509250925092565b6000602082840312156122c657600080fd5b60006122d484828501611f91565b91505092915050565b6122e681612dc5565b82525050565b6122f581612dc5565b82525050565b61230481612dd7565b82525050565b61231381612dd7565b82525050565b600061232482612cd2565b61232e8185612cdd565b935061233e818560208601612e1c565b61234781612fb0565b840191505092915050565b600061235d82612cd2565b6123678185612cee565b9350612377818560208601612e1c565b61238081612fb0565b840191505092915050565b600061239682612cd2565b6123a08185612cff565b93506123b0818560208601612e1c565b80840191505092915050565b600081546123c981612e79565b6123d38186612cff565b945060018216600081146123ee57600181146123ff57612432565b60ff19831686528186019350612432565b61240885612cbd565b60005b8381101561242a5781548189015260018201915060208101905061240b565b838801955050505b50505092915050565b6000612448601083612cee565b91507f416e6461207375646168206c6f67696e000000000000000000000000000000006000830152602082019050919050565b6000612488600e83612cee565b91507f50617373776f72642073616c61680000000000000000000000000000000000006000830152602082019050919050565b60006124c8602483612cee565b91507f416e6461206861727573206c6f67696e20756e74756b206d656c616b756b616e60008301527f20696e69000000000000000000000000000000000000000000000000000000006020830152604082019050919050565b600061252e602883612cee565b91507f416e64612068617275732074657264616674617220756e74756b206d656c616b60008301527f756b616e20696e690000000000000000000000000000000000000000000000006020830152604082019050919050565b6000612594601883612cee565b91507f50656e6767756e612062656c756d2074657264616674617200000000000000006000830152602082019050919050565b60006125d4601583612cee565b91507f456d61696c2073756461682074657264616674617200000000000000000000006000830152602082019050919050565b6000612614601783612cee565b91507f54616e616d616e20746964616b20646974656d756b616e0000000000000000006000830152602082019050919050565b6000612654601083612cee565b91507f416e64612062656c756d206c6f67696e000000000000000000000000000000006000830152602082019050919050565b6000612694601a83612cee565b91507f5075626c6963206b6579207375646168207465726461667461720000000000006000830152602082019050919050565b60006126d4601b83612cee565b91507f526174696e6720686172757320616e7461726120312064616e203500000000006000830152602082019050919050565b600060c08301600083015184820360008601526127248282612319565b9150506020830151848203602086015261273e8282612319565b915050604083015161275360408601826122dd565b506060830151848203606086015261276b8282612319565b915050608083015161278060808601826122fb565b5060a083015161279360a08601826122fb565b508091505092915050565b6127a781612e03565b82525050565b60006127b9828461238b565b915081905092915050565b60006127d082846123bc565b915081905092915050565b60006020820190506127f060008301846122ec565b92915050565b600060408201905061280b60008301856122ec565b818103602083015261281d8184612352565b90509392505050565b600060208201905061283b600083018461230a565b92915050565b600060c082019050818103600083015261285b8189612352565b9050818103602083015261286f8188612352565b905081810360408301526128838187612352565b905081810360608301526128978186612352565b905081810360808301526128ab8185612352565b905081810360a08301526128bf8184612352565b9050979650505050505050565b60006101408201905081810360008301526128e7818d612352565b905081810360208301526128fb818c612352565b9050818103604083015261290f818b612352565b90508181036060830152612923818a612352565b905081810360808301526129378189612352565b905081810360a083015261294b8188612352565b905061295a60c083018761279e565b61296760e083018661279e565b61297561010083018561279e565b6129836101208301846122ec565b9b9a5050505050505050505050565b600060208201905081810360008301526129ab8161243b565b9050919050565b600060208201905081810360008301526129cb8161247b565b9050919050565b600060208201905081810360008301526129eb816124bb565b9050919050565b60006020820190508181036000830152612a0b81612521565b9050919050565b60006020820190508181036000830152612a2b81612587565b9050919050565b60006020820190508181036000830152612a4b816125c7565b9050919050565b60006020820190508181036000830152612a6b81612607565b9050919050565b60006020820190508181036000830152612a8b81612647565b9050919050565b60006020820190508181036000830152612aab81612687565b9050919050565b60006020820190508181036000830152612acb816126c7565b9050919050565b60006020820190508181036000830152612aec8184612707565b905092915050565b6000602082019050612b09600083018461279e565b92915050565b6000604082019050612b24600083018561279e565b612b3160208301846122ec565b9392505050565b6000606082019050612b4d600083018661279e565b612b5a60208301856122ec565b612b67604083018461279e565b949350505050565b600061010082019050612b85600083018b61279e565b8181036020830152612b97818a612352565b90508181036040830152612bab8189612352565b90508181036060830152612bbf8188612352565b90508181036080830152612bd38187612352565b905081810360a0830152612be78186612352565b905081810360c0830152612bfb8185612352565b9050612c0a60e08301846122ec565b9998505050505050505050565b6000608082019050612c2c600083018761279e565b612c39602083018661279e565b612c46604083018561279e565b612c5360608301846122ec565b95945050505050565b6000604051905081810181811067ffffffffffffffff82111715612c8357612c82612f81565b5b8060405250919050565b600067ffffffffffffffff821115612ca857612ca7612f81565b5b601f19601f8301169050602081019050919050565b60008190508160005260206000209050919050565b600081519050919050565b600082825260208201905092915050565b600082825260208201905092915050565b600081905092915050565b6000612d1582612e03565b9150612d2083612e03565b9250827fffffffffffffffffffffffffffffffffffffffffffffffffffffffffffffffff03821115612d5557612d54612ef4565b5b828201905092915050565b6000612d6b82612e03565b9150612d7683612e03565b925082612d8657612d85612f23565b5b828204905092915050565b6000612d9c82612e03565b9150612da783612e03565b925082821015612dba57612db9612ef4565b5b828203905092915050565b6000612dd082612de3565b9050919050565b60008115159050919050565b600073ffffffffffffffffffffffffffffffffffffffff82169050919050565b6000819050919050565b82818337600083830152505050565b60005b83811015612e3a578082015181840152602081019050612e1f565b83811115612e49576000848401525b50505050565b6000612e5a82612e03565b91506000821415612e6e57612e6d612ef4565b5b600182039050919050565b60006002820490506001821680612e9157607f821691505b60208210811415612ea557612ea4612f52565b5b50919050565b6000612eb682612e03565b91507fffffffffffffffffffffffffffffffffffffffffffffffffffffffffffffffff821415612ee957612ee8612ef4565b5b600182019050919050565b7f4e487b7100000000000000000000000000000000000000000000000000000000600052601160045260246000fd5b7f4e487b7100000000000000000000000000000000000000000000000000000000600052601260045260246000fd5b7f4e487b7100000000000000000000000000000000000000000000000000000000600052602260045260246000fd5b7f4e487b7100000000000000000000000000000000000000000000000000000000600052604160045260246000fd5b6000601f19601f8301169050919050565b612fca81612dc5565b8114612fd557600080fd5b50565b612fe181612e03565b8114612fec57600080fd5b5056fea2646970667358221220869652846f3fa70e626ff65b9fc9073659e88f8a02d07e5a672bcc422244047c64736f6c63430008000033",
  "immutableReferences": {},
  "source": "// SPDX-License-Identifier: MIT\r\n\r\npragma solidity ^0.8.0;\r\n\r\ncontract HerbalPlant {\r\n    // Struktur data untuk tanaman\r\n    struct Plant {\r\n        string name;                // Nama Tanaman\r\n        string namaLatin;            // Nama Latin Tanaman\r\n        string komposisi;            // Komposisi/Kandungan Tanaman\r\n        string kegunaan;             // Manfaat Tanaman\r\n        string caraPengolahan;        // Cara Pengolahan Tanaman\r\n        string ipfsHash;            // Menyimpan CID dari IPFS\r\n        uint ratingTotal;\r\n        uint ratingCount;\r\n        uint likeCount;             // Menghitung jumlah like\r\n        mapping(address => uint) ratings; // Menyimpan rating bintang per pengguna\r\n        mapping(address => bool) liked;   // Menghindari like ganda\r\n        address owner;\r\n    }\r\n\r\n    // Struktur data untuk pengguna\r\n    struct User {\r\n        string fullName;\r\n        string email;\r\n        address publicKey;\r\n        string passwordHash; // Menyimpan password hash dalam format string\r\n        bool isRegistered;\r\n        bool isLoggedIn;\r\n    }\r\n\r\n    // Mappings untuk menyimpan data tanaman dan pengguna\r\n    mapping(uint => Plant) public plants;\r\n    mapping(address => User) private usersByPublicKey; // Simpan user berdasarkan publicKey\r\n    mapping(string => bool) public emailExists;\r\n    uint public plantCount;\r\n\r\n    // Events untuk logging aktivitas\r\n    event PlantAdded(uint plantId, string name, string namaLatin, string komposisi, string kegunaan, string caraPengolahan, string ipfsHash, address owner);\r\n    event PlantRated(uint plantId, address user, uint rating);\r\n    event UserRegistered(address user, string fullName);\r\n    event UserLoggedIn(address user);\r\n    event UserLoggedOut(address user);\r\n    event PlantLiked(uint plantId, address user);\r\n\r\n    // Modifiers untuk membatasi akses fungsi\r\n    modifier onlyRegisteredUser(address publicKey) {\r\n        require(usersByPublicKey[publicKey].isRegistered, \"Anda harus terdaftar untuk melakukan ini\");\r\n        require(usersByPublicKey[publicKey].isLoggedIn, \"Anda harus login untuk melakukan ini\");\r\n        _;\r\n    }\r\n\r\n    modifier onlyOwner(uint plantId) {\r\n        require(msg.sender == plants[plantId].owner, \"Anda bukan pemilik tanaman ini\");\r\n        _;\r\n    }\r\n\r\n    // Fungsi untuk manajemen pengguna\r\n    function registerUser(string memory fullName, string memory email, string memory passwordHash) public {\r\n        require(!emailExists[email], \"Email sudah terdaftar\");\r\n        require(usersByPublicKey[msg.sender].publicKey == address(0), \"Public key sudah terdaftar\");\r\n\r\n        usersByPublicKey[msg.sender] = User({\r\n            fullName: fullName,\r\n            email: email,\r\n            publicKey: msg.sender,\r\n            passwordHash: passwordHash,\r\n            isRegistered: true,\r\n            isLoggedIn: false\r\n        });\r\n\r\n        emailExists[email] = true;\r\n        emit UserRegistered(msg.sender, fullName);\r\n    }\r\n\r\n    // Fungsi login dengan publicKey dan passwordHash\r\n    function loginWithPublicKey(address publicKey, string memory passwordHash) public {\r\n        require(usersByPublicKey[publicKey].isRegistered, \"Pengguna belum terdaftar\");\r\n        \r\n        // Verifikasi password hash yang dikirimkan dari middleware\r\n        require(keccak256(abi.encodePacked(passwordHash)) == keccak256(abi.encodePacked(usersByPublicKey[publicKey].passwordHash)), \"Password salah\");\r\n        require(!usersByPublicKey[publicKey].isLoggedIn, \"Anda sudah login\");\r\n\r\n        usersByPublicKey[publicKey].isLoggedIn = true;\r\n        emit UserLoggedIn(publicKey);\r\n    }\r\n\r\n    function logout(address publicKey) public {\r\n        require(usersByPublicKey[publicKey].isLoggedIn, \"Anda belum login\");\r\n        usersByPublicKey[publicKey].isLoggedIn = false;\r\n        emit UserLoggedOut(publicKey);\r\n    }\r\n\r\n    // Fungsi-fungsi untuk manajemen tanaman\r\n    function addPlant(address publicKey, string memory name, string memory namaLatin, string memory komposisi, string memory kegunaan, string memory caraPengolahan, string memory ipfsHash) public onlyRegisteredUser(publicKey) {\r\n        uint plantId = plantCount;\r\n        Plant storage plant = plants[plantId];\r\n        plant.name = name;\r\n        plant.namaLatin = namaLatin;\r\n        plant.komposisi = komposisi;\r\n        plant.kegunaan = kegunaan;\r\n        plant.caraPengolahan = caraPengolahan;\r\n        plant.ipfsHash = ipfsHash;\r\n        plant.ratingTotal = 0;\r\n        plant.ratingCount = 0;\r\n        plant.likeCount = 0;\r\n        plant.owner = msg.sender;\r\n\r\n        plantCount++;\r\n        emit PlantAdded(plantId, name, namaLatin, komposisi, kegunaan, caraPengolahan, ipfsHash, msg.sender);\r\n    }\r\n\r\n    function ratePlant(address publicKey, uint plantId, uint rating) public onlyRegisteredUser(publicKey) {\r\n        require(rating >= 1 && rating <= 5, \"Rating harus antara 1 dan 5\");\r\n        require(bytes(plants[plantId].name).length > 0, \"Tanaman tidak ditemukan\");\r\n\r\n        Plant storage plant = plants[plantId];\r\n\r\n        if (plant.ratings[msg.sender] > 0) {\r\n            plant.ratingTotal = plant.ratingTotal - plant.ratings[msg.sender] + rating;\r\n        } else {\r\n            plant.ratingTotal += rating;\r\n            plant.ratingCount++;\r\n        }\r\n\r\n        plant.ratings[msg.sender] = rating;\r\n        emit PlantRated(plantId, msg.sender, rating);\r\n    }\r\n\r\n    function likePlant(address publicKey, uint plantId) public onlyRegisteredUser(publicKey) {\r\n        Plant storage plant = plants[plantId];\r\n\r\n        if (plant.liked[msg.sender]) {\r\n            plant.liked[msg.sender] = false;\r\n            plant.likeCount--;\r\n        } else {\r\n            plant.liked[msg.sender] = true;\r\n            plant.likeCount++;\r\n        }\r\n        emit PlantLiked(plantId, msg.sender);\r\n    }\r\n\r\n    // Fungsi-fungsi untuk mendapatkan informasi tanaman\r\n    function getPlantRating(uint plantId) public view returns (uint averageRating) {\r\n        require(bytes(plants[plantId].name).length > 0, \"Tanaman tidak ditemukan\");\r\n        Plant storage plant = plants[plantId];\r\n        return plant.ratingCount == 0 ? 0 : plant.ratingTotal / plant.ratingCount;\r\n    }\r\n\r\n    function getPlantBasicInfo(uint plantId) public view returns (\r\n        string memory name,\r\n        string memory namaLatin,\r\n        string memory komposisi,\r\n        string memory kegunaan,\r\n        string memory caraPengolahan,\r\n        string memory ipfsHash\r\n    ) {\r\n        require(bytes(plants[plantId].name).length > 0, \"Tanaman tidak ditemukan\");\r\n        Plant storage plant = plants[plantId];\r\n        return (\r\n            plant.name,\r\n            plant.namaLatin,\r\n            plant.komposisi,\r\n            plant.kegunaan,\r\n            plant.caraPengolahan,\r\n            plant.ipfsHash\r\n        );\r\n    }\r\n\r\n    function getPlantMetrics(uint plantId) public view returns (\r\n        uint averageRating,\r\n        uint ratingCount,\r\n        uint likeCount,\r\n        address owner\r\n    ) {\r\n        require(bytes(plants[plantId].name).length > 0, \"Tanaman tidak ditemukan\");\r\n        Plant storage plant = plants[plantId];\r\n        return (\r\n            getPlantRating(plantId),\r\n            plant.ratingCount,\r\n            plant.likeCount,\r\n            plant.owner\r\n        );\r\n    }\r\n\r\n    // Getter function for user data\r\n    function getUserByPublicKey(address publicKey) public view returns (User memory) {\r\n        return usersByPublicKey[publicKey];\r\n    }\r\n}\r\n",
  "sourcePath": "D:\\Kuliah\\TA\\middleware\\contracts\\HerbalPlant.sol",
  "compiler": {
    "name": "solc",
    "version": "0.8.0+commit.c7dfd78e.Emscripten.clang"
  },
  "schemaVersion": "3.4.16",
  "updatedAt": "2025-02-28T02:17:22.386Z",
  "networkType": "ethereum",
  "devdoc": {
    "kind": "dev",
    "methods": {},
    "version": 1
  },
  "userdoc": {
    "kind": "user",
    "methods": {},
    "version": 1
  }
}